{"abi":[{"type":"constructor","inputs":[{"name":"initialManagementKey","type":"address","internalType":"address"},{"name":"_isLibrary","type":"bool","internalType":"bool"}],"stateMutability":"nonpayable"},{"type":"function","name":"addClaim","inputs":[{"name":"_topic","type":"uint256","internalType":"uint256"},{"name":"_scheme","type":"uint256","internalType":"uint256"},{"name":"_issuer","type":"address","internalType":"address"},{"name":"_signature","type":"bytes","internalType":"bytes"},{"name":"_data","type":"bytes","internalType":"bytes"},{"name":"_uri","type":"string","internalType":"string"}],"outputs":[{"name":"claimRequestId","type":"bytes32","internalType":"bytes32"}],"stateMutability":"nonpayable"},{"type":"function","name":"addKey","inputs":[{"name":"_key","type":"bytes32","internalType":"bytes32"},{"name":"_purpose","type":"uint256","internalType":"uint256"},{"name":"_type","type":"uint256","internalType":"uint256"}],"outputs":[{"name":"success","type":"bool","internalType":"bool"}],"stateMutability":"nonpayable"},{"type":"function","name":"approve","inputs":[{"name":"_id","type":"uint256","internalType":"uint256"},{"name":"_approve","type":"bool","internalType":"bool"}],"outputs":[{"name":"success","type":"bool","internalType":"bool"}],"stateMutability":"nonpayable"},{"type":"function","name":"execute","inputs":[{"name":"_to","type":"address","internalType":"address"},{"name":"_value","type":"uint256","internalType":"uint256"},{"name":"_data","type":"bytes","internalType":"bytes"}],"outputs":[{"name":"executionId","type":"uint256","internalType":"uint256"}],"stateMutability":"payable"},{"type":"function","name":"getClaim","inputs":[{"name":"_claimId","type":"bytes32","internalType":"bytes32"}],"outputs":[{"name":"topic","type":"uint256","internalType":"uint256"},{"name":"scheme","type":"uint256","internalType":"uint256"},{"name":"issuer","type":"address","internalType":"address"},{"name":"signature","type":"bytes","internalType":"bytes"},{"name":"data","type":"bytes","internalType":"bytes"},{"name":"uri","type":"string","internalType":"string"}],"stateMutability":"view"},{"type":"function","name":"getClaimIdsByTopic","inputs":[{"name":"_topic","type":"uint256","internalType":"uint256"}],"outputs":[{"name":"claimIds","type":"bytes32[]","internalType":"bytes32[]"}],"stateMutability":"view"},{"type":"function","name":"getKey","inputs":[{"name":"_key","type":"bytes32","internalType":"bytes32"}],"outputs":[{"name":"purposes","type":"uint256[]","internalType":"uint256[]"},{"name":"keyType","type":"uint256","internalType":"uint256"},{"name":"key","type":"bytes32","internalType":"bytes32"}],"stateMutability":"view"},{"type":"function","name":"getKeyPurposes","inputs":[{"name":"_key","type":"bytes32","internalType":"bytes32"}],"outputs":[{"name":"_purposes","type":"uint256[]","internalType":"uint256[]"}],"stateMutability":"view"},{"type":"function","name":"getKeysByPurpose","inputs":[{"name":"_purpose","type":"uint256","internalType":"uint256"}],"outputs":[{"name":"keys","type":"bytes32[]","internalType":"bytes32[]"}],"stateMutability":"view"},{"type":"function","name":"getRecoveredAddress","inputs":[{"name":"sig","type":"bytes","internalType":"bytes"},{"name":"dataHash","type":"bytes32","internalType":"bytes32"}],"outputs":[{"name":"addr","type":"address","internalType":"address"}],"stateMutability":"pure"},{"type":"function","name":"initialize","inputs":[{"name":"initialManagementKey","type":"address","internalType":"address"}],"outputs":[],"stateMutability":"nonpayable"},{"type":"function","name":"isClaimValid","inputs":[{"name":"_identity","type":"address","internalType":"contract IIdentity"},{"name":"claimTopic","type":"uint256","internalType":"uint256"},{"name":"sig","type":"bytes","internalType":"bytes"},{"name":"data","type":"bytes","internalType":"bytes"}],"outputs":[{"name":"claimValid","type":"bool","internalType":"bool"}],"stateMutability":"view"},{"type":"function","name":"keyHasPurpose","inputs":[{"name":"_key","type":"bytes32","internalType":"bytes32"},{"name":"_purpose","type":"uint256","internalType":"uint256"}],"outputs":[{"name":"result","type":"bool","internalType":"bool"}],"stateMutability":"view"},{"type":"function","name":"removeClaim","inputs":[{"name":"_claimId","type":"bytes32","internalType":"bytes32"}],"outputs":[{"name":"success","type":"bool","internalType":"bool"}],"stateMutability":"nonpayable"},{"type":"function","name":"removeKey","inputs":[{"name":"_key","type":"bytes32","internalType":"bytes32"},{"name":"_purpose","type":"uint256","internalType":"uint256"}],"outputs":[{"name":"success","type":"bool","internalType":"bool"}],"stateMutability":"nonpayable"},{"type":"function","name":"version","inputs":[],"outputs":[{"name":"","type":"string","internalType":"string"}],"stateMutability":"pure"},{"type":"event","name":"Approved","inputs":[{"name":"executionId","type":"uint256","indexed":true,"internalType":"uint256"},{"name":"approved","type":"bool","indexed":false,"internalType":"bool"}],"anonymous":false},{"type":"event","name":"ClaimAdded","inputs":[{"name":"claimId","type":"bytes32","indexed":true,"internalType":"bytes32"},{"name":"topic","type":"uint256","indexed":true,"internalType":"uint256"},{"name":"scheme","type":"uint256","indexed":false,"internalType":"uint256"},{"name":"issuer","type":"address","indexed":true,"internalType":"address"},{"name":"signature","type":"bytes","indexed":false,"internalType":"bytes"},{"name":"data","type":"bytes","indexed":false,"internalType":"bytes"},{"name":"uri","type":"string","indexed":false,"internalType":"string"}],"anonymous":false},{"type":"event","name":"ClaimChanged","inputs":[{"name":"claimId","type":"bytes32","indexed":true,"internalType":"bytes32"},{"name":"topic","type":"uint256","indexed":true,"internalType":"uint256"},{"name":"scheme","type":"uint256","indexed":false,"internalType":"uint256"},{"name":"issuer","type":"address","indexed":true,"internalType":"address"},{"name":"signature","type":"bytes","indexed":false,"internalType":"bytes"},{"name":"data","type":"bytes","indexed":false,"internalType":"bytes"},{"name":"uri","type":"string","indexed":false,"internalType":"string"}],"anonymous":false},{"type":"event","name":"ClaimRemoved","inputs":[{"name":"claimId","type":"bytes32","indexed":true,"internalType":"bytes32"},{"name":"topic","type":"uint256","indexed":true,"internalType":"uint256"},{"name":"scheme","type":"uint256","indexed":false,"internalType":"uint256"},{"name":"issuer","type":"address","indexed":true,"internalType":"address"},{"name":"signature","type":"bytes","indexed":false,"internalType":"bytes"},{"name":"data","type":"bytes","indexed":false,"internalType":"bytes"},{"name":"uri","type":"string","indexed":false,"internalType":"string"}],"anonymous":false},{"type":"event","name":"Executed","inputs":[{"name":"executionId","type":"uint256","indexed":true,"internalType":"uint256"},{"name":"to","type":"address","indexed":true,"internalType":"address"},{"name":"value","type":"uint256","indexed":true,"internalType":"uint256"},{"name":"data","type":"bytes","indexed":false,"internalType":"bytes"}],"anonymous":false},{"type":"event","name":"ExecutionFailed","inputs":[{"name":"executionId","type":"uint256","indexed":true,"internalType":"uint256"},{"name":"to","type":"address","indexed":true,"internalType":"address"},{"name":"value","type":"uint256","indexed":true,"internalType":"uint256"},{"name":"data","type":"bytes","indexed":false,"internalType":"bytes"}],"anonymous":false},{"type":"event","name":"ExecutionRequested","inputs":[{"name":"executionId","type":"uint256","indexed":true,"internalType":"uint256"},{"name":"to","type":"address","indexed":true,"internalType":"address"},{"name":"value","type":"uint256","indexed":true,"internalType":"uint256"},{"name":"data","type":"bytes","indexed":false,"internalType":"bytes"}],"anonymous":false},{"type":"event","name":"KeyAdded","inputs":[{"name":"key","type":"bytes32","indexed":true,"internalType":"bytes32"},{"name":"purpose","type":"uint256","indexed":true,"internalType":"uint256"},{"name":"keyType","type":"uint256","indexed":true,"internalType":"uint256"}],"anonymous":false},{"type":"event","name":"KeyRemoved","inputs":[{"name":"key","type":"bytes32","indexed":true,"internalType":"bytes32"},{"name":"purpose","type":"uint256","indexed":true,"internalType":"uint256"},{"name":"keyType","type":"uint256","indexed":true,"internalType":"uint256"}],"anonymous":false}],"bytecode":{"object":"0x60806040526000600660006101000a81548160ff0219169083151502179055506000600660016101000a81548160ff0219169083151502179055503480156200004757600080fd5b50604051620049623803806200496283398181016040528101906200006d919062000401565b600073ffffffffffffffffffffffffffffffffffffffff168273ffffffffffffffffffffffffffffffffffffffff1603620000df576040517f08c379a0000000000000000000000000000000000000000000000000000000008152600401620000d690620004a9565b60405180910390fd5b80620000fc57620000f6826200012060201b60201c565b62000118565b6001600660006101000a81548160ff0219169083151502179055505b50506200056b565b600660009054906101000a900460ff16158062000149575062000148620002cd60201b60201c565b5b6200018b576040517f08c379a000000000000000000000000000000000000000000000000000000000815260040162000182906200051b565b60405180910390fd5b6001600660006101000a81548160ff0219169083151502179055506001600660016101000a81548160ff021916908315150217905550600081604051602001620001d691906200054e565b6040516020818303038152906040528051906020012090508060016000838152602001908152602001600020600201819055506040518060200160405280600160ff168152506001600083815260200190815260200160002060000190600162000242929190620002e4565b506001806000838152602001908152602001600020600101819055506002600060018152602001908152602001600020819080600181540180825580915050600190039060005260206000200160009091909190915055600180827f480000bb1edad8ca1470381cc334b1917fbd51c6531f3a623ea8e0ec7e38a6e960405160405180910390a45050565b6000803090506000813b9050600081149250505090565b82805482825590600052602060002090810192821562000328579160200282015b8281111562000327578251829060ff1690559160200191906001019062000305565b5b5090506200033791906200033b565b5090565b5b80821115620003565760008160009055506001016200033c565b5090565b600080fd5b600073ffffffffffffffffffffffffffffffffffffffff82169050919050565b60006200038c826200035f565b9050919050565b6200039e816200037f565b8114620003aa57600080fd5b50565b600081519050620003be8162000393565b92915050565b60008115159050919050565b620003db81620003c4565b8114620003e757600080fd5b50565b600081519050620003fb81620003d0565b92915050565b600080604083850312156200041b576200041a6200035a565b5b60006200042b85828601620003ad565b92505060206200043e85828601620003ea565b9150509250929050565b600082825260208201905092915050565b7f696e76616c696420617267756d656e74202d207a65726f206164647265737300600082015250565b600062000491601f8362000448565b91506200049e8262000459565b602082019050919050565b60006020820190508181036000830152620004c48162000482565b9050919050565b7f496e697469616c206b65792077617320616c72656164792073657475702e0000600082015250565b600062000503601e8362000448565b91506200051082620004cb565b602082019050919050565b600060208201905081810360008301526200053681620004f4565b9050919050565b62000548816200037f565b82525050565b60006020820190506200056560008301846200053d565b92915050565b6143e7806200057b6000396000f3fe6080604052600436106100f35760003560e01c8063b1a34e0d1161008a578063c4d66de811610059578063c4d66de8146103b7578063c9100bcb146103e0578063d202158d14610422578063fb307b341461045f576100f3565b8063b1a34e0d146102d0578063b61d27f61461030d578063c0969a6e1461033d578063c3b129e31461037a576100f3565b806354fd4d50116100c657806354fd4d50146101ee578063747442d31461021957806380e9e9e1146102565780639010f72614610293576100f3565b806312aaac70146100f85780631d381240146101375780634eee424a1461017457806353d413c5146101b1575b600080fd5b34801561010457600080fd5b5061011f600480360381019061011a919061278d565b61049c565b60405161012e939291906128a0565b60405180910390f35b34801561014357600080fd5b5061015e6004803603810190610159919061290a565b610544565b60405161016b9190612978565b60405180910390f35b34801561018057600080fd5b5061019b6004803603810190610196919061278d565b61086c565b6040516101a89190612978565b60405180910390f35b3480156101bd57600080fd5b506101d860048036038101906101d39190612993565b610c43565b6040516101e59190612978565b60405180910390f35b3480156101fa57600080fd5b506102036110e0565b6040516102109190612a63565b60405180910390f35b34801561022557600080fd5b50610240600480360381019061023b9190612ab1565b61111d565b60405161024d9190612978565b60405180910390f35b34801561026257600080fd5b5061027d60048036038101906102789190612af1565b611691565b60405161028a9190612bdc565b60405180910390f35b34801561029f57600080fd5b506102ba60048036038101906102b59190612af1565b6116fc565b6040516102c79190612bdc565b60405180910390f35b3480156102dc57600080fd5b506102f760048036038101906102f29190612e32565b611767565b6040516103049190612f13565b60405180910390f35b61032760048036038101906103229190612f2e565b611bdf565b6040516103349190612f9d565b60405180910390f35b34801561034957600080fd5b50610364600480360381019061035f9190612ff6565b611e06565b6040516103719190612978565b60405180910390f35b34801561038657600080fd5b506103a1600480360381019061039c9190613095565b611ec8565b6040516103ae9190613100565b60405180910390f35b3480156103c357600080fd5b506103de60048036038101906103d9919061311b565b611f78565b005b3480156103ec57600080fd5b506104076004803603810190610402919061278d565b611ff3565b6040516104199695949392919061319d565b60405180910390f35b34801561042e57600080fd5b5061044960048036038101906104449190612993565b61225d565b6040516104569190612978565b60405180910390f35b34801561046b57600080fd5b506104866004803603810190610481919061278d565b612377565b6040516104939190613213565b60405180910390f35b606060008060016000858152602001908152602001600020600001600160008681526020019081526020016000206001015460016000878152602001908152602001600020600201548280548060200260200160405190810160405280929190818152602001828054801561053057602002820191906000526020600020905b81548152602001906001019080831161051c575b505050505092509250925092509193909250565b600060011515600660019054906101000a900460ff1615151461059c576040517f08c379a0000000000000000000000000000000000000000000000000000000008152600401610593906132a7565b60405180910390fd5b3073ffffffffffffffffffffffffffffffffffffffff163373ffffffffffffffffffffffffffffffffffffffff1614806106035750610602336040516020016105e59190613100565b60405160208183030381529060405280519060200120600161225d565b5b610642576040517f08c379a000000000000000000000000000000000000000000000000000000000815260040161063990613339565b60405180910390fd5b8360016000868152602001908152602001600020600201540361078d576000600160008681526020019081526020016000206000018054806020026020016040519081016040528092919081815260200182805480156106c157602002820191906000526020600020905b8154815260200190600101908083116106ad575b5050505050905060005b81518110156107495760008282815181106106e9576106e8613359565b5b60200260200101519050858103610735576040517f08c379a000000000000000000000000000000000000000000000000000000000815260040161072c906133fa565b60405180910390fd5b50808061074190613449565b9150506106cb565b5060016000868152602001908152602001600020600001849080600181540180825580915050600190039060005260206000200160009091909190915055506107f8565b836001600086815260200190815260200160002060020181905550604051806020016040528084815250600160008681526020019081526020016000206000019060016107db929190612599565b508160016000868152602001908152602001600020600101819055505b600260008481526020019081526020016000208490806001815401808255809150506001900390600052602060002001600090919091909150558183857f480000bb1edad8ca1470381cc334b1917fbd51c6531f3a623ea8e0ec7e38a6e960405160405180910390a4600190509392505050565b600060011515600660019054906101000a900460ff161515146108c4576040517f08c379a00000000000000000000000000000000000000000000000000000000081526004016108bb906132a7565b60405180910390fd5b3073ffffffffffffffffffffffffffffffffffffffff163373ffffffffffffffffffffffffffffffffffffffff16148061092b575061092a3360405160200161090d9190613100565b60405160208183030381529060405280519060200120600361225d565b5b61096a576040517f08c379a000000000000000000000000000000000000000000000000000000000815260040161096190613503565b60405180910390fd5b600060046000848152602001908152602001600020600001549050600081036109c8576040517f08c379a00000000000000000000000000000000000000000000000000000000081526004016109bf90613595565b60405180910390fd5b600080600560008481526020019081526020016000208054905090505b84600560008581526020019081526020016000208381548110610a0b57610a0a613359565b5b906000526020600020015414610a31578180610a2690613449565b9250508082106109e5575b60056000848152602001908152602001600020600182610a5191906135b5565b81548110610a6257610a61613359565b5b9060005260206000200154600560008581526020019081526020016000208381548110610a9257610a91613359565b5b906000526020600020018190555060056000848152602001908152602001600020805480610ac357610ac26135e9565b5b600190038181906000526020600020016000905590556004600086815260200190815260200160002060020160009054906101000a900473ffffffffffffffffffffffffffffffffffffffff1673ffffffffffffffffffffffffffffffffffffffff1683867f3cf57863a89432c61c4a27073c6ee39e8a764bff5a05aebfbcdcdc80b2e6130a600460008a815260200190815260200160002060010154600460008b8152602001908152602001600020600301600460008c8152602001908152602001600020600401600460008d8152602001908152602001600020600501604051610bb294939291906137aa565b60405180910390a46004600086815260200190815260200160002060008082016000905560018201600090556002820160006101000a81549073ffffffffffffffffffffffffffffffffffffffff0219169055600382016000610c1591906125e6565b600482016000610c2591906125e6565b600582016000610c359190612626565b505060019350505050919050565b600060011515600660019054906101000a900460ff16151514610c9b576040517f08c379a0000000000000000000000000000000000000000000000000000000008152600401610c92906132a7565b60405180910390fd5b3073ffffffffffffffffffffffffffffffffffffffff163373ffffffffffffffffffffffffffffffffffffffff161480610d025750610d0133604051602001610ce49190613100565b60405160208183030381529060405280519060200120600161225d565b5b610d41576040517f08c379a0000000000000000000000000000000000000000000000000000000008152600401610d3890613339565b60405180910390fd5b82600160008581526020019081526020016000206002015414610d99576040517f08c379a0000000000000000000000000000000000000000000000000000000008152600401610d9090613876565b60405180910390fd5b600060016000858152602001908152602001600020600001805480602002602001604051908101604052809291908181526020018280548015610dfb57602002820191906000526020600020905b815481526020019060010190808311610de7575b5050505050905060005b83828281518110610e1957610e18613359565b5b602002602001015114610e7c578080610e3190613449565b91505081518103610e77576040517f08c379a0000000000000000000000000000000000000000000000000000000008152600401610e6e90613908565b60405180910390fd5b610e05565b8160018351610e8b91906135b5565b81518110610e9c57610e9b613359565b5b6020026020010151828281518110610eb757610eb6613359565b5b60200260200101818152505081600160008781526020019081526020016000206000019080519060200190610eed929190612666565b5060016000868152602001908152602001600020600001805480610f1457610f136135e9565b5b60019003818190600052602060002001600090559055600080600260008781526020019081526020016000208054905090505b86600260008881526020019081526020016000208381548110610f6d57610f6c613359565b5b906000526020600020015414610f93578180610f8890613449565b925050808210610f47575b60026000878152602001908152602001600020600182610fb391906135b5565b81548110610fc457610fc3613359565b5b9060005260206000200154600260008881526020019081526020016000208381548110610ff457610ff3613359565b5b906000526020600020018190555060026000878152602001908152602001600020805480611025576110246135e9565b5b6001900381819060005260206000200160009055905560006001600089815260200190815260200160002060010154905060006001865161106691906135b5565b036110a257600160008981526020019081526020016000206000808201600061108f91906126b3565b6001820160009055600282016000905550505b8087897f585a4aef50f8267a92b32412b331b20f7f8b96f2245b253b9cc50dcc621d339760405160405180910390a460019550505050505092915050565b60606040518060400160405280600581526020017f322e322e31000000000000000000000000000000000000000000000000000000815250905090565b600060011515600660019054906101000a900460ff16151514611175576040517f08c379a000000000000000000000000000000000000000000000000000000000815260040161116c906132a7565b60405180910390fd5b60005483106111b9576040517f08c379a00000000000000000000000000000000000000000000000000000000081526004016111b09061399a565b60405180910390fd5b6003600084815260200190815260200160002060030160019054906101000a900460ff161561121d576040517f08c379a000000000000000000000000000000000000000000000000000000000815260040161121490613a06565b60405180910390fd5b3073ffffffffffffffffffffffffffffffffffffffff166003600085815260200190815260200160002060000160009054906101000a900473ffffffffffffffffffffffffffffffffffffffff1673ffffffffffffffffffffffffffffffffffffffff16036112fb576112b73360405160200161129a9190613100565b60405160208183030381529060405280519060200120600161225d565b6112f6576040517f08c379a00000000000000000000000000000000000000000000000000000000081526004016112ed90613a98565b60405180910390fd5b61136c565b61132c3360405160200161130f9190613100565b60405160208183030381529060405280519060200120600261225d565b61136b576040517f08c379a000000000000000000000000000000000000000000000000000000000815260040161136290613b04565b60405180910390fd5b5b827fb3932da477fe5d6c8ff2eafef050c0f3a1af18fc07121001482600f36f3715d88360405161139c9190612978565b60405180910390a260011515821515036116575760016003600085815260200190815260200160002060030160006101000a81548160ff0219169083151502179055506003600084815260200190815260200160002060000160009054906101000a900473ffffffffffffffffffffffffffffffffffffffff1673ffffffffffffffffffffffffffffffffffffffff166003600085815260200190815260200160002060010154600360008681526020019081526020016000206002016040516114669190613bb2565b60006040518083038185875af1925050503d80600081146114a3576040519150601f19603f3d011682016040523d82523d6000602084013e6114a8565b606091505b505080915050801561159d5760016003600085815260200190815260200160002060030160016101000a81548160ff02191690831515021790555060036000848152602001908152602001600020600101546003600085815260200190815260200160002060000160009054906101000a900473ffffffffffffffffffffffffffffffffffffffff1673ffffffffffffffffffffffffffffffffffffffff16847f1f920dbda597d7bf95035464170fa58d0a4b57f13a1c315ace6793b9f63688b86003600088815260200190815260200160002060020160405161158c9190613bc9565b60405180910390a46001905061168b565b60036000848152602001908152602001600020600101546003600085815260200190815260200160002060000160009054906101000a900473ffffffffffffffffffffffffffffffffffffffff1673ffffffffffffffffffffffffffffffffffffffff16847fe10c49d9f7c71da23262367013434763cfdb2332267641728d25cd712c5c6a68600360008881526020019081526020016000206002016040516116469190613bc9565b60405180910390a46000905061168b565b60006003600085815260200190815260200160002060030160006101000a81548160ff021916908315150217905550600090505b92915050565b6060600560008381526020019081526020016000208054806020026020016040519081016040528092919081815260200182805480156116f057602002820191906000526020600020905b8154815260200190600101908083116116dc575b50505050509050919050565b60606002600083815260200190815260200160002080548060200260200160405190810160405280929190818152602001828054801561175b57602002820191906000526020600020905b815481526020019060010190808311611747575b50505050509050919050565b600060011515600660019054906101000a900460ff161515146117bf576040517f08c379a00000000000000000000000000000000000000000000000000000000081526004016117b6906132a7565b60405180910390fd5b3073ffffffffffffffffffffffffffffffffffffffff163373ffffffffffffffffffffffffffffffffffffffff1614806118265750611825336040516020016118089190613100565b60405160208183030381529060405280519060200120600361225d565b5b611865576040517f08c379a000000000000000000000000000000000000000000000000000000000815260040161185c90613503565b60405180910390fd5b3073ffffffffffffffffffffffffffffffffffffffff168573ffffffffffffffffffffffffffffffffffffffff1614611958578473ffffffffffffffffffffffffffffffffffffffff1663c0969a6e308987876040518563ffffffff1660e01b81526004016118d79493929190613c4a565b602060405180830381865afa1580156118f4573d6000803e3d6000fd5b505050506040513d601f19601f820116820180604052508101906119189190613cb2565b611957576040517f08c379a000000000000000000000000000000000000000000000000000000000815260040161194e90613d2b565b60405180910390fd5b5b6000858860405160200161196d929190613d4b565b604051602081830303815290604052805190602001209050876004600083815260200190815260200160002060000181905550866004600083815260200190815260200160002060010181905550846004600083815260200190815260200160002060030190816119de9190613f01565b5083600460008381526020019081526020016000206004019081611a029190613f01565b5082600460008381526020019081526020016000206005019081611a269190614019565b508573ffffffffffffffffffffffffffffffffffffffff166004600083815260200190815260200160002060020160009054906101000a900473ffffffffffffffffffffffffffffffffffffffff1673ffffffffffffffffffffffffffffffffffffffff1614611b7a5760056000898152602001908152602001600020819080600181540180825580915050600190039060005260206000200160009091909190915055856004600083815260200190815260200160002060020160006101000a81548173ffffffffffffffffffffffffffffffffffffffff021916908373ffffffffffffffffffffffffffffffffffffffff1602179055508573ffffffffffffffffffffffffffffffffffffffff1688827f46149b18aa084502c3f12bc75e19eda8bda8d102b82cce8474677a6d0d5f43c58a898989604051611b6d94939291906140eb565b60405180910390a4611bd1565b8573ffffffffffffffffffffffffffffffffffffffff1688827f3bab293fc00db832d7619a9299914251b8747c036867ec056cbd506f60135b138a898989604051611bc894939291906140eb565b60405180910390a45b809150509695505050505050565b600060011515600660019054906101000a900460ff16151514611c37576040517f08c379a0000000000000000000000000000000000000000000000000000000008152600401611c2e906132a7565b60405180910390fd5b600080549050846003600083815260200190815260200160002060000160006101000a81548173ffffffffffffffffffffffffffffffffffffffff021916908373ffffffffffffffffffffffffffffffffffffffff16021790555083600360008381526020019081526020016000206001018190555082600360008381526020019081526020016000206002019081611cd09190613f01565b50600080815480929190611ce390613449565b9190505550838573ffffffffffffffffffffffffffffffffffffffff16827f8afcfabcb00e47a53a8fc3e9f23ff47ee1926194bb1350dd007c50b412a6cee886604051611d309190614145565b60405180910390a4611d6933604051602001611d4c9190613100565b60405160208183030381529060405280519060200120600161225d565b15611d7f57611d7981600161111d565b50611dfb565b3073ffffffffffffffffffffffffffffffffffffffff168573ffffffffffffffffffffffffffffffffffffffff1614158015611de85750611de733604051602001611dca9190613100565b60405160208183030381529060405280519060200120600261225d565b5b15611dfa57611df881600161111d565b505b5b809150509392505050565b600080858584604051602001611e1e93929190614167565b604051602081830303815290604052805190602001209050600081604051602001611e49919061421d565b6040516020818303038152906040528051906020012090506000611e6d8683611ec8565b9050600081604051602001611e829190613100565b604051602081830303815290604052805190602001209050611ea581600361225d565b15611eb7576001945050505050611ec0565b60009450505050505b949350505050565b6000806000806041865114611ee35760009350505050611f72565b6020860151925060408601519150606086015160001a9050601b8160ff161015611f1757601b81611f149190614250565b90505b600060018683868660405160008152602001604052604051611f3c9493929190614294565b6020604051602081039080840390855afa158015611f5e573d6000803e3d6000fd5b505050602060405103519050809450505050505b92915050565b600073ffffffffffffffffffffffffffffffffffffffff168173ffffffffffffffffffffffffffffffffffffffff1603611fe7576040517f08c379a0000000000000000000000000000000000000000000000000000000008152600401611fde90614325565b60405180910390fd5b611ff0816123e5565b50565b6000806000606080606060046000888152602001908152602001600020600001546004600089815260200190815260200160002060010154600460008a815260200190815260200160002060020160009054906101000a900473ffffffffffffffffffffffffffffffffffffffff16600460008b8152602001908152602001600020600301600460008c8152602001908152602001600020600401600460008d81526020019081526020016000206005018280546120b090613647565b80601f01602080910402602001604051908101604052809291908181526020018280546120dc90613647565b80156121295780601f106120fe57610100808354040283529160200191612129565b820191906000526020600020905b81548152906001019060200180831161210c57829003601f168201915b5050505050925081805461213c90613647565b80601f016020809104026020016040519081016040528092919081815260200182805461216890613647565b80156121b55780601f1061218a576101008083540402835291602001916121b5565b820191906000526020600020905b81548152906001019060200180831161219857829003601f168201915b505050505091508080546121c890613647565b80601f01602080910402602001604051908101604052809291908181526020018280546121f490613647565b80156122415780601f1061221657610100808354040283529160200191612241565b820191906000526020600020905b81548152906001019060200180831161222457829003601f168201915b5050505050905095509550955095509550955091939550919395565b60008060016000858152602001908152602001600020604051806060016040529081600082018054806020026020016040519081016040528092919081815260200182805480156122cd57602002820191906000526020600020905b8154815260200190600101908083116122b9575b505050505081526020016001820154815260200160028201548152505090506000801b816040015103612304576000915050612371565b60005b81600001515181101561236a5760008260000151828151811061232d5761232c613359565b5b60200260200101519050600181148061234557508481145b156123565760019350505050612371565b50808061236290613449565b915050612307565b5060009150505b92915050565b6060600160008381526020019081526020016000206000018054806020026020016040519081016040528092919081815260200182805480156123d957602002820191906000526020600020905b8154815260200190600101908083116123c5575b50505050509050919050565b600660009054906101000a900460ff1615806124055750612404612582565b5b612444576040517f08c379a000000000000000000000000000000000000000000000000000000000815260040161243b90614391565b60405180910390fd5b6001600660006101000a81548160ff0219169083151502179055506001600660016101000a81548160ff02191690831515021790555060008160405160200161248d9190613100565b6040516020818303038152906040528051906020012090508060016000838152602001908152602001600020600201819055506040518060200160405280600160ff16815250600160008381526020019081526020016000206000019060016124f79291906126d4565b506001806000838152602001908152602001600020600101819055506002600060018152602001908152602001600020819080600181540180825580915050600190039060005260206000200160009091909190915055600180827f480000bb1edad8ca1470381cc334b1917fbd51c6531f3a623ea8e0ec7e38a6e960405160405180910390a45050565b6000803090506000813b9050600081149250505090565b8280548282559060005260206000209081019282156125d5579160200282015b828111156125d45782518255916020019190600101906125b9565b5b5090506125e29190612726565b5090565b5080546125f290613647565b6000825580601f106126045750612623565b601f0160209004906000526020600020908101906126229190612726565b5b50565b50805461263290613647565b6000825580601f106126445750612663565b601f0160209004906000526020600020908101906126629190612726565b5b50565b8280548282559060005260206000209081019282156126a2579160200282015b828111156126a1578251825591602001919060010190612686565b5b5090506126af9190612726565b5090565b50805460008255906000526020600020908101906126d19190612726565b50565b828054828255906000526020600020908101928215612715579160200282015b82811115612714578251829060ff169055916020019190600101906126f4565b5b5090506127229190612726565b5090565b5b8082111561273f576000816000905550600101612727565b5090565b6000604051905090565b600080fd5b600080fd5b6000819050919050565b61276a81612757565b811461277557600080fd5b50565b60008135905061278781612761565b92915050565b6000602082840312156127a3576127a261274d565b5b60006127b184828501612778565b91505092915050565b600081519050919050565b600082825260208201905092915050565b6000819050602082019050919050565b6000819050919050565b6127f9816127e6565b82525050565b600061280b83836127f0565b60208301905092915050565b6000602082019050919050565b600061282f826127ba565b61283981856127c5565b9350612844836127d6565b8060005b8381101561287557815161285c88826127ff565b975061286783612817565b925050600181019050612848565b5085935050505092915050565b61288b816127e6565b82525050565b61289a81612757565b82525050565b600060608201905081810360008301526128ba8186612824565b90506128c96020830185612882565b6128d66040830184612891565b949350505050565b6128e7816127e6565b81146128f257600080fd5b50565b600081359050612904816128de565b92915050565b6000806000606084860312156129235761292261274d565b5b600061293186828701612778565b9350506020612942868287016128f5565b9250506040612953868287016128f5565b9150509250925092565b60008115159050919050565b6129728161295d565b82525050565b600060208201905061298d6000830184612969565b92915050565b600080604083850312156129aa576129a961274d565b5b60006129b885828601612778565b92505060206129c9858286016128f5565b9150509250929050565b600081519050919050565b600082825260208201905092915050565b60005b83811015612a0d5780820151818401526020810190506129f2565b60008484015250505050565b6000601f19601f8301169050919050565b6000612a35826129d3565b612a3f81856129de565b9350612a4f8185602086016129ef565b612a5881612a19565b840191505092915050565b60006020820190508181036000830152612a7d8184612a2a565b905092915050565b612a8e8161295d565b8114612a9957600080fd5b50565b600081359050612aab81612a85565b92915050565b60008060408385031215612ac857612ac761274d565b5b6000612ad6858286016128f5565b9250506020612ae785828601612a9c565b9150509250929050565b600060208284031215612b0757612b0661274d565b5b6000612b15848285016128f5565b91505092915050565b600081519050919050565b600082825260208201905092915050565b6000819050602082019050919050565b612b5381612757565b82525050565b6000612b658383612b4a565b60208301905092915050565b6000602082019050919050565b6000612b8982612b1e565b612b938185612b29565b9350612b9e83612b3a565b8060005b83811015612bcf578151612bb68882612b59565b9750612bc183612b71565b925050600181019050612ba2565b5085935050505092915050565b60006020820190508181036000830152612bf68184612b7e565b905092915050565b600073ffffffffffffffffffffffffffffffffffffffff82169050919050565b6000612c2982612bfe565b9050919050565b612c3981612c1e565b8114612c4457600080fd5b50565b600081359050612c5681612c30565b92915050565b600080fd5b600080fd5b7f4e487b7100000000000000000000000000000000000000000000000000000000600052604160045260246000fd5b612c9e82612a19565b810181811067ffffffffffffffff82111715612cbd57612cbc612c66565b5b80604052505050565b6000612cd0612743565b9050612cdc8282612c95565b919050565b600067ffffffffffffffff821115612cfc57612cfb612c66565b5b612d0582612a19565b9050602081019050919050565b82818337600083830152505050565b6000612d34612d2f84612ce1565b612cc6565b905082815260208101848484011115612d5057612d4f612c61565b5b612d5b848285612d12565b509392505050565b600082601f830112612d7857612d77612c5c565b5b8135612d88848260208601612d21565b91505092915050565b600067ffffffffffffffff821115612dac57612dab612c66565b5b612db582612a19565b9050602081019050919050565b6000612dd5612dd084612d91565b612cc6565b905082815260208101848484011115612df157612df0612c61565b5b612dfc848285612d12565b509392505050565b600082601f830112612e1957612e18612c5c565b5b8135612e29848260208601612dc2565b91505092915050565b60008060008060008060c08789031215612e4f57612e4e61274d565b5b6000612e5d89828a016128f5565b9650506020612e6e89828a016128f5565b9550506040612e7f89828a01612c47565b945050606087013567ffffffffffffffff811115612ea057612e9f612752565b5b612eac89828a01612d63565b935050608087013567ffffffffffffffff811115612ecd57612ecc612752565b5b612ed989828a01612d63565b92505060a087013567ffffffffffffffff811115612efa57612ef9612752565b5b612f0689828a01612e04565b9150509295509295509295565b6000602082019050612f286000830184612891565b92915050565b600080600060608486031215612f4757612f4661274d565b5b6000612f5586828701612c47565b9350506020612f66868287016128f5565b925050604084013567ffffffffffffffff811115612f8757612f86612752565b5b612f9386828701612d63565b9150509250925092565b6000602082019050612fb26000830184612882565b92915050565b6000612fc382612c1e565b9050919050565b612fd381612fb8565b8114612fde57600080fd5b50565b600081359050612ff081612fca565b92915050565b600080600080608085870312156130105761300f61274d565b5b600061301e87828801612fe1565b945050602061302f878288016128f5565b935050604085013567ffffffffffffffff8111156130505761304f612752565b5b61305c87828801612d63565b925050606085013567ffffffffffffffff81111561307d5761307c612752565b5b61308987828801612d63565b91505092959194509250565b600080604083850312156130ac576130ab61274d565b5b600083013567ffffffffffffffff8111156130ca576130c9612752565b5b6130d685828601612d63565b92505060206130e785828601612778565b9150509250929050565b6130fa81612c1e565b82525050565b600060208201905061311560008301846130f1565b92915050565b6000602082840312156131315761313061274d565b5b600061313f84828501612c47565b91505092915050565b600081519050919050565b600082825260208201905092915050565b600061316f82613148565b6131798185613153565b93506131898185602086016129ef565b61319281612a19565b840191505092915050565b600060c0820190506131b26000830189612882565b6131bf6020830188612882565b6131cc60408301876130f1565b81810360608301526131de8186613164565b905081810360808301526131f28185613164565b905081810360a08301526132068184612a2a565b9050979650505050505050565b6000602082019050818103600083015261322d8184612824565b905092915050565b7f496e746572616374696e67207769746820746865206c69627261727920636f6e60008201527f747261637420697320666f7262696464656e2e00000000000000000000000000602082015250565b60006132916033836129de565b915061329c82613235565b604082019050919050565b600060208201905081810360008301526132c081613284565b9050919050565b7f5065726d697373696f6e733a2053656e64657220646f6573206e6f742068617660008201527f65206d616e6167656d656e74206b657900000000000000000000000000000000602082015250565b60006133236030836129de565b915061332e826132c7565b604082019050919050565b6000602082019050818103600083015261335281613316565b9050919050565b7f4e487b7100000000000000000000000000000000000000000000000000000000600052603260045260246000fd5b7f436f6e666c6963743a204b657920616c72656164792068617320707572706f7360008201527f6500000000000000000000000000000000000000000000000000000000000000602082015250565b60006133e46021836129de565b91506133ef82613388565b604082019050919050565b60006020820190508181036000830152613413816133d7565b9050919050565b7f4e487b7100000000000000000000000000000000000000000000000000000000600052601160045260246000fd5b6000613454826127e6565b91507fffffffffffffffffffffffffffffffffffffffffffffffffffffffffffffffff82036134865761348561341a565b5b600182019050919050565b7f5065726d697373696f6e733a2053656e64657220646f6573206e6f742068617660008201527f6520636c61696d207369676e6572206b65790000000000000000000000000000602082015250565b60006134ed6032836129de565b91506134f882613491565b604082019050919050565b6000602082019050818103600083015261351c816134e0565b9050919050565b7f4e6f6e4578697374696e673a205468657265206973206e6f20636c61696d207760008201527f6974682074686973204944000000000000000000000000000000000000000000602082015250565b600061357f602b836129de565b915061358a82613523565b604082019050919050565b600060208201905081810360008301526135ae81613572565b9050919050565b60006135c0826127e6565b91506135cb836127e6565b92508282039050818111156135e3576135e261341a565b5b92915050565b7f4e487b7100000000000000000000000000000000000000000000000000000000600052603160045260246000fd5b7f4e487b7100000000000000000000000000000000000000000000000000000000600052602260045260246000fd5b6000600282049050600182168061365f57607f821691505b60208210810361367257613671613618565b5b50919050565b60008190508160005260206000209050919050565b6000815461369a81613647565b6136a48186613153565b945060018216600081146136bf57600181146136d557613708565b60ff198316865281151560200286019350613708565b6136de85613678565b60005b83811015613700578154818901526001820191506020810190506136e1565b808801955050505b50505092915050565b60008190508160005260206000209050919050565b6000815461373381613647565b61373d81866129de565b94506001821660008114613758576001811461376e576137a1565b60ff1983168652811515602002860193506137a1565b61377785613711565b60005b838110156137995781548189015260018201915060208101905061377a565b808801955050505b50505092915050565b60006080820190506137bf6000830187612882565b81810360208301526137d1818661368d565b905081810360408301526137e5818561368d565b905081810360608301526137f98184613726565b905095945050505050565b7f4e6f6e4578697374696e673a204b65792069736e27742072656769737465726560008201527f6400000000000000000000000000000000000000000000000000000000000000602082015250565b60006138606021836129de565b915061386b82613804565b604082019050919050565b6000602082019050818103600083015261388f81613853565b9050919050565b7f4e6f6e4578697374696e673a204b657920646f65736e2774206861766520737560008201527f636820707572706f736500000000000000000000000000000000000000000000602082015250565b60006138f2602a836129de565b91506138fd82613896565b604082019050919050565b60006020820190508181036000830152613921816138e5565b9050919050565b7f43616e6e6f7420617070726f76652061206e6f6e2d6578697374696e6720657860008201527f65637574696f6e00000000000000000000000000000000000000000000000000602082015250565b60006139846027836129de565b915061398f82613928565b604082019050919050565b600060208201905081810360008301526139b381613977565b9050919050565b7f5265717565737420616c72656164792065786563757465640000000000000000600082015250565b60006139f06018836129de565b91506139fb826139ba565b602082019050919050565b60006020820190508181036000830152613a1f816139e3565b9050919050565b7f53656e64657220646f6573206e6f742068617665206d616e6167656d656e742060008201527f6b65790000000000000000000000000000000000000000000000000000000000602082015250565b6000613a826023836129de565b9150613a8d82613a26565b604082019050919050565b60006020820190508181036000830152613ab181613a75565b9050919050565b7f53656e64657220646f6573206e6f74206861766520616374696f6e206b657900600082015250565b6000613aee601f836129de565b9150613af982613ab8565b602082019050919050565b60006020820190508181036000830152613b1d81613ae1565b9050919050565b600081905092915050565b60008154613b3c81613647565b613b468186613b24565b94506001821660008114613b615760018114613b7657613ba9565b60ff1983168652811515820286019350613ba9565b613b7f85613678565b60005b83811015613ba157815481890152600182019150602081019050613b82565b838801955050505b50505092915050565b6000613bbe8284613b2f565b915081905092915050565b60006020820190508181036000830152613be3818461368d565b905092915050565b6000819050919050565b6000613c10613c0b613c0684612bfe565b613beb565b612bfe565b9050919050565b6000613c2282613bf5565b9050919050565b6000613c3482613c17565b9050919050565b613c4481613c29565b82525050565b6000608082019050613c5f6000830187613c3b565b613c6c6020830186612882565b8181036040830152613c7e8185613164565b90508181036060830152613c928184613164565b905095945050505050565b600081519050613cac81612a85565b92915050565b600060208284031215613cc857613cc761274d565b5b6000613cd684828501613c9d565b91505092915050565b7f696e76616c696420636c61696d00000000000000000000000000000000000000600082015250565b6000613d15600d836129de565b9150613d2082613cdf565b602082019050919050565b60006020820190508181036000830152613d4481613d08565b9050919050565b6000604082019050613d6060008301856130f1565b613d6d6020830184612882565b9392505050565b60006020601f8301049050919050565b600082821b905092915050565b600060088302613dc17fffffffffffffffffffffffffffffffffffffffffffffffffffffffffffffffff82613d84565b613dcb8683613d84565b95508019841693508086168417925050509392505050565b6000613dfe613df9613df4846127e6565b613beb565b6127e6565b9050919050565b6000819050919050565b613e1883613de3565b613e2c613e2482613e05565b848454613d91565b825550505050565b600090565b613e41613e34565b613e4c818484613e0f565b505050565b5b81811015613e7057613e65600082613e39565b600181019050613e52565b5050565b601f821115613eb557613e8681613678565b613e8f84613d74565b81016020851015613e9e578190505b613eb2613eaa85613d74565b830182613e51565b50505b505050565b600082821c905092915050565b6000613ed860001984600802613eba565b1980831691505092915050565b6000613ef18383613ec7565b9150826002028217905092915050565b613f0a82613148565b67ffffffffffffffff811115613f2357613f22612c66565b5b613f2d8254613647565b613f38828285613e74565b600060209050601f831160018114613f6b5760008415613f59578287015190505b613f638582613ee5565b865550613fcb565b601f198416613f7986613678565b60005b82811015613fa157848901518255600182019150602085019450602081019050613f7c565b86831015613fbe5784890151613fba601f891682613ec7565b8355505b6001600288020188555050505b505050505050565b601f82111561401457613fe581613711565b613fee84613d74565b81016020851015613ffd578190505b61401161400985613d74565b830182613e51565b50505b505050565b614022826129d3565b67ffffffffffffffff81111561403b5761403a612c66565b5b6140458254613647565b614050828285613fd3565b600060209050601f8311600181146140835760008415614071578287015190505b61407b8582613ee5565b8655506140e3565b601f19841661409186613711565b60005b828110156140b957848901518255600182019150602085019450602081019050614094565b868310156140d657848901516140d2601f891682613ec7565b8355505b6001600288020188555050505b505050505050565b60006080820190506141006000830187612882565b81810360208301526141128186613164565b905081810360408301526141268185613164565b9050818103606083015261413a8184612a2a565b905095945050505050565b6000602082019050818103600083015261415f8184613164565b905092915050565b600060608201905061417c6000830186613c3b565b6141896020830185612882565b818103604083015261419b8184613164565b9050949350505050565b600081905092915050565b7f19457468657265756d205369676e6564204d6573736167653a0a333200000000600082015250565b60006141e6601c836141a5565b91506141f1826141b0565b601c82019050919050565b6000819050919050565b61421761421282612757565b6141fc565b82525050565b6000614228826141d9565b91506142348284614206565b60208201915081905092915050565b600060ff82169050919050565b600061425b82614243565b915061426683614243565b9250828201905060ff81111561427f5761427e61341a565b5b92915050565b61428e81614243565b82525050565b60006080820190506142a96000830187612891565b6142b66020830186614285565b6142c36040830185612891565b6142d06060830184612891565b95945050505050565b7f696e76616c696420617267756d656e74202d207a65726f206164647265737300600082015250565b600061430f601f836129de565b915061431a826142d9565b602082019050919050565b6000602082019050818103600083015261433e81614302565b9050919050565b7f496e697469616c206b65792077617320616c72656164792073657475702e0000600082015250565b600061437b601e836129de565b915061438682614345565b602082019050919050565b600060208201905081810360008301526143aa8161436e565b905091905056fea2646970667358221220e7da4d454e76915da1af41e9fcf26800c1d1f3f4adc09757e3f182a6b6842bb064736f6c63430008110033","linkReferences":{}},"methodIdentifiers":{"addClaim(uint256,uint256,address,bytes,bytes,string)":"b1a34e0d","addKey(bytes32,uint256,uint256)":"1d381240","approve(uint256,bool)":"747442d3","execute(address,uint256,bytes)":"b61d27f6","getClaim(bytes32)":"c9100bcb","getClaimIdsByTopic(uint256)":"80e9e9e1","getKey(bytes32)":"12aaac70","getKeyPurposes(bytes32)":"fb307b34","getKeysByPurpose(uint256)":"9010f726","getRecoveredAddress(bytes,bytes32)":"c3b129e3","initialize(address)":"c4d66de8","isClaimValid(address,uint256,bytes,bytes)":"c0969a6e","keyHasPurpose(bytes32,uint256)":"d202158d","removeClaim(bytes32)":"4eee424a","removeKey(bytes32,uint256)":"53d413c5","version()":"54fd4d50"},"id":15}